Component: ARM Compiler 5.05 update 1 (build 106) Tool: armlink [4d0efa]

==============================================================================

Section Cross References

    system_lpc17xx.o(.text) refers to system_lpc17xx.o(.data) for .data
    startup_lpc17xx.o(STACK) refers (Special) to heapauxi.o(.text) for __use_two_region_memory
    startup_lpc17xx.o(HEAP) refers (Special) to heapauxi.o(.text) for __use_two_region_memory
    startup_lpc17xx.o(RESET) refers (Special) to heapauxi.o(.text) for __use_two_region_memory
    startup_lpc17xx.o(RESET) refers to startup_lpc17xx.o(STACK) for __initial_sp
    startup_lpc17xx.o(RESET) refers to startup_lpc17xx.o(.text) for Reset_Handler
    startup_lpc17xx.o(RESET) refers to context_rvds.o(.text) for HardFault_Handler
    startup_lpc17xx.o(RESET) refers to board.o(.text) for SysTick_Handler
    startup_lpc17xx.o(RESET) refers to uart0.o(.text) for UART0_IRQHandler
    startup_lpc17xx.o(RESET) refers to serial.o(.text) for UART0_IRQHandler
    startup_lpc17xx.o(RESET) refers to uart1.o(.text) for UART1_IRQHandler
    startup_lpc17xx.o(RESET) refers to usbhw.o(.text) for USB_IRQHandler
    startup_lpc17xx.o(RESET) refers to emac.o(.text) for ENET_IRQHandler
    startup_lpc17xx.o(.ARM.__at_0x02FC) refers (Special) to heapauxi.o(.text) for __use_two_region_memory
    startup_lpc17xx.o(.text) refers (Special) to heapauxi.o(.text) for __use_two_region_memory
    startup_lpc17xx.o(.text) refers to system_lpc17xx.o(.text) for SystemInit
    startup_lpc17xx.o(.text) refers to __main.o(!!!main) for __main
    startup_lpc17xx.o(.text) refers to startup_lpc17xx.o(HEAP) for Heap_Mem
    startup_lpc17xx.o(.text) refers to startup_lpc17xx.o(STACK) for Stack_Mem
    application.o(.text) refers to kservice.o(.text) for rt_memset
    application.o(.text) refers to dfs_posix.o(.text) for open
    application.o(.text) refers to gpib.o(.text) for readln
    application.o(.text) refers to strstr.o(.text) for strstr
    application.o(.text) refers to strcpy.o(.text) for strcpy
    application.o(.text) refers to strchr.o(.text) for strchr
    application.o(.text) refers to strncpy.o(.text) for strncpy
    application.o(.text) refers to rt_memclr_w.o(.text) for __aeabi_memclr4
    application.o(.text) refers to iap.o(.text) for WriteFlash
    application.o(.text) refers to thread.o(.text) for rt_thread_delay
    application.o(.text) refers to led.o(.text) for rt_hw_led_init
    application.o(.text) refers to platform.o(.text) for platform_init
    application.o(.text) refers to rtc.o(.text) for rt_hw_rtc_init
    application.o(.text) refers to emac.o(.text) for lpc17xx_emac_hw_init
    application.o(.text) refers to ethernetif.o(.text) for eth_system_device_init
    application.o(.text) refers to sys_arch.o(.text) for lwip_system_init
    application.o(.text) refers to sd.o(.text) for rt_hw_sdcard_init
    application.o(.text) refers to dfs.o(.text) for dfs_init
    application.o(.text) refers to dfs_elm.o(.text) for elm_init
    application.o(.text) refers to dfs_fs.o(.text) for dfs_mount
    application.o(.text) refers to timer_control.o(.text) for timer_control_init
    application.o(.text) refers to application.o(.bss) for .bss
    application.o(.text) refers to startup.o(.bss) for offline_str
    application.o(.text) refers to startup.o(.data) for offline_LED
    application.o(.text) refers to startup.o(.data) for timer_sw_count
    application.o(.text) refers to application.o(.data) for .data
    application.o(.text) refers to startup.o(.data) for read_once
    application.o(.text) refers to startup.o(.data) for offline_start
    application.o(.text) refers to startup.o(.data) for Listen_Only_Mode
    application.o(.text) refers to startup.o(.data) for UART_Auto_Mode
    application.o(.text) refers to startup.o(.bss) for LPC1768_NO
    application.o(.text) refers to tcpserver.o(.text) for tcpserv
    platform.o(.text) refers to memheap.o(.text) for rt_memheap_init
    platform.o(.text) refers to platform.o(.bss) for .bss
    startup.o(.text) refers to board.o(.text) for rt_hw_board_init
    startup.o(.text) refers to mem.o(.text) for rt_system_heap_init
    startup.o(.text) refers to scheduler.o(.text) for rt_system_scheduler_init
    startup.o(.text) refers to application.o(.text) for rt_application_init
    startup.o(.text) refers to timer.o(.text) for rt_system_timer_init
    startup.o(.text) refers to idle.o(.text) for rt_thread_idle_init
    startup.o(.text) refers to context_rvds.o(.text) for rt_hw_interrupt_disable
    board.o(.text) refers to irq.o(.text) for rt_interrupt_enter
    board.o(.text) refers to clock.o(.text) for rt_tick_increase
    board.o(.text) refers to iap.o(.text) for u32IAP_ReadSerialNumber
    board.o(.text) refers to uart0.o(.text) for rt_hw_uart0_init
    board.o(.text) refers to uart1.o(.text) for rt_hw_uart1_init
    board.o(.text) refers to kservice.o(.text) for rt_console_set_device
    board.o(.text) refers to device.o(.text) for rt_device_find
    board.o(.text) refers to startup.o(.bss) for LPC1768_NO
    board.o(.text) refers to system_lpc17xx.o(.data) for SystemCoreClock
    emac.o(.text) refers to irq.o(.text) for rt_interrupt_enter
    emac.o(.text) refers to ethernetif.o(.text) for eth_device_ready
    emac.o(.text) refers to ipc.o(.text) for rt_event_send
    emac.o(.text) refers to kservice.o(.text) for rt_kprintf
    emac.o(.text) refers to emac.o(.bss) for .bss
    emac.o(.text) refers to emac.o(.constdata) for .constdata
    emac.o(.text) refers to rt_memcpy_v6.o(.text) for __aeabi_memcpy
    emac.o(.text) refers to pbuf.o(.text) for pbuf_alloc
    emac.o(.text) refers to startup.o(.bss) for LPC1768_NO
    emac.o(.text) refers to netif.o(.data) for netif_list
    emac.o(.text) refers to startup.o(.data) for IP_ADDR
    emac.o(.text) refers to startup.o(.data) for GW_ADDR
    emac.o(.text) refers to startup.o(.data) for MSK_ADDR
    emac.o(.text) refers to startup.o(.data) for MAC_ADDR
    emac.o(.rti_fn.2) refers to emac.o(.text) for lpc17xx_emac_hw_init
    sd.o(.text) refers to spi.o(.text) for LPC17xx_SPI_DeSelect
    sd.o(.text) refers to kservice.o(.text) for rt_kprintf
    sd.o(.text) refers to sd.o(.bss) for .bss
    sd.o(.text) refers to sd.o(.data) for .data
    sd.o(.text) refers to mem.o(.text) for rt_malloc
    sd.o(.text) refers to dfs_fs.o(.text) for dfs_filesystem_get_partition
    sd.o(.text) refers to device.o(.text) for rt_device_register
    gpib.o(.text) refers to _printf_pad.o(.text) for _printf_pre_padding
    gpib.o(.text) refers to _printf_percent.o(.ARM.Collect$$_printf_percent$$00000000) for _printf_percent
    gpib.o(.text) refers to _printf_d.o(.ARM.Collect$$_printf_percent$$00000009) for _printf_d
    gpib.o(.text) refers to _printf_dec.o(.text) for _printf_int_dec
    gpib.o(.text) refers to toupper.o(.text) for toupper
    gpib.o(.text) refers to dfs_posix.o(.text) for open
    gpib.o(.text) refers to led.o(.text) for rt_hw_led_on
    gpib.o(.text) refers to device.o(.text) for rt_device_find
    gpib.o(.text) refers to tcpserver.o(.text) for GPIB_send
    gpib.o(.text) refers to rt_memclr.o(.text) for __aeabi_memclr
    gpib.o(.text) refers to noretval__2sprintf.o(.text) for __2sprintf
    gpib.o(.text) refers to gpib.o(.data) for .data
    gpib.o(.text) refers to startup.o(.data) for offline_start
    gpib.o(.text) refers to startup.o(.data) for Listen_Only_Mode
    gpib.o(.text) refers to gpib.o(.bss) for .bss
    gpib.o(.text) refers to startup.o(.data) for offline_return
    gpib.o(.text) refers to startup.o(.data) for TEMP_NOW
    gpib.o(.text) refers to strlen.o(.text) for strlen
    gpib.o(.text) refers to strcat.o(.text) for strcat
    gpib.o(.text) refers to startup.o(.data) for ms_int
    gpib.o(.text) refers to rt_memclr_w.o(.text) for __aeabi_memclr4
    gpib.o(.text) refers to strstr.o(.text) for strstr
    gpib.o(.text) refers to startup.o(.data) for WIFI_GPIB_PORT
    gpib.o(.text) refers to startup.o(.data) for USB_GPIB_PORT
    gpib.o(.text) refers to startup.o(.data) for LAN_GPIB_PORT
    gpib.o(.text) refers to emac.o(.text) for care_find_ip
    gpib.o(.text) refers to strcpy.o(.text) for strcpy
    gpib.o(.text) refers to startup.o(.data) for GPIB_WAIT_TIME
    gpib.o(.text) refers to startup.o(.data) for TCP_SERVER_PORT
    gpib.o(.text) refers to startup.o(.data) for MAC_ADDR
    gpib.o(.text) refers to startup.o(.data) for UART0_BAUDRATE
    gpib.o(.text) refers to startup.o(.data) for UART1_BAUDRATE
    gpib.o(.text) refers to startup.o(.data) for UART_Auto_Mode
    gpib.o(.text) refers to startup.o(.data) for BOOL_DHCP
    gpib.o(.text) refers to startup.o(.data) for IP_ADDR
    gpib.o(.text) refers to startup.o(.data) for GW_ADDR
    gpib.o(.text) refers to startup.o(.data) for MSK_ADDR
    gpib.o(.text) refers to iap.o(.text) for WriteFlash
    gpib.o(.text) refers to startup.o(.data) for UDP_SERVER_PORT
    gpib.o(.text) refers to startup.o(.data) for RT_LWIP_IPADDR0
    gpib.o(.text) refers to startup.o(.data) for RT_LWIP_IPADDR1
    gpib.o(.text) refers to startup.o(.data) for RT_LWIP_IPADDR2
    gpib.o(.text) refers to startup.o(.data) for RT_LWIP_IPADDR3
    gpib.o(.text) refers to startup.o(.data) for RT_LWIP_GWADDR0
    gpib.o(.text) refers to startup.o(.data) for RT_LWIP_GWADDR1
    gpib.o(.text) refers to startup.o(.data) for RT_LWIP_GWADDR2
    gpib.o(.text) refers to startup.o(.data) for RT_LWIP_GWADDR3
    gpib.o(.text) refers to startup.o(.data) for RT_LWIP_MSKADDR0
    gpib.o(.text) refers to startup.o(.data) for RT_LWIP_MSKADDR1
    gpib.o(.text) refers to startup.o(.data) for RT_LWIP_MSKADDR2
    gpib.o(.text) refers to startup.o(.data) for RT_LWIP_MSKADDR3
    gpib.o(.text) refers to startup.o(.data) for rand_seed
    gpib.o(.text) refers to thread.o(.text) for rt_thread_delay
    gpib.o(.text) refers to strncpy.o(.text) for strncpy
    gpib.o(.text) refers to startup.o(.bss) for offline_str
    gpib.o(.data) refers to gpib.o(.conststring) for .conststring
    gpib.o(.data) refers to gpib.o(.conststring) for .conststring
    rtc.o(.text) refers to kservice.o(.text) for rt_kprintf
    rtc.o(.text) refers to rtc.o(.data) for .data
    uart0.o(.text) refers to device.o(.text) for rt_device_find
    uart0.o(.text) refers to gpib.o(.text) for care_protocol_state
    uart0.o(.text) refers to rt_memclr.o(.text) for __aeabi_memclr
    uart0.o(.text) refers to kservice.o(.text) for rt_kprintf
    uart0.o(.text) refers to context_rvds.o(.text) for rt_hw_interrupt_disable
    uart0.o(.text) refers to uart0.o(.bss) for .bss
    uart0.o(.text) refers to startup.o(.data) for UART_Auto_Mode
    uart0.o(.text) refers to system_lpc17xx.o(.data) for SystemCoreClock
    uart0.o(.text) refers to startup.o(.data) for UART0_BAUDRATE
    uart0.o(.text) refers to uart0.o(.constdata) for .constdata
    uart1.o(.text) refers to device.o(.text) for rt_device_find
    uart1.o(.text) refers to gpib.o(.text) for care_protocol_state
    uart1.o(.text) refers to rt_memclr.o(.text) for __aeabi_memclr
    uart1.o(.text) refers to kservice.o(.text) for rt_kprintf
    uart1.o(.text) refers to context_rvds.o(.text) for rt_hw_interrupt_disable
    uart1.o(.text) refers to uart1.o(.bss) for .bss
    uart1.o(.text) refers to startup.o(.data) for UART_Auto_Mode
    uart1.o(.text) refers to system_lpc17xx.o(.data) for SystemCoreClock
    uart1.o(.text) refers to startup.o(.data) for UART1_BAUDRATE
    uart1.o(.text) refers to uart1.o(.constdata) for .constdata
    timer_control.o(.text) refers to timer.o(.text) for rt_timer_control
    timer_control.o(.text) refers to startup.o(.data) for timer_sw_count
    timer_control.o(.text) refers to timer_control.o(.data) for .data
    timer_control.o(.text) refers to startup.o(.data) for ms_int
    timer_control.o(.text) refers to startup.o(.data) for rand_seed
    rand.o(.text) refers to rand.o(.data) for .data
    clock.o(.text) refers to context_rvds.o(.text) for rt_hw_interrupt_disable
    clock.o(.text) refers to thread.o(.text) for rt_thread_self
    clock.o(.text) refers to timer.o(.text) for rt_timer_check
    clock.o(.text) refers to clock.o(.data) for .data
    device.o(.text) refers to thread.o(.text) for rt_thread_self
    device.o(.text) refers to scheduler.o(.text) for rt_enter_critical
    device.o(.text) refers to kservice.o(.text) for rt_strncmp
    device.o(.text) refers to object.o(.text) for rt_object_init
    device.o(.text) refers to object.o(.data) for rt_object_container
    device.o(.text) refers to device.o(.constdata) for .constdata
    idle.o(.text) refers to context_rvds.o(.text) for rt_hw_interrupt_disable
    idle.o(.text) refers to irq.o(.text) for rt_interrupt_get_nest
    idle.o(.text) refers to kservice.o(.text) for rt_kprintf
    idle.o(.text) refers to object.o(.text) for rt_object_is_systemobject
    idle.o(.text) refers to mem.o(.text) for rt_free
    idle.o(.text) refers to thread.o(.text) for rt_thread_init
    idle.o(.text) refers to idle.o(.data) for .data
    idle.o(.text) refers to scheduler.o(.data) for rt_thread_defunct
    idle.o(.text) refers to idle.o(.constdata) for .constdata
    idle.o(.text) refers to idle.o(.bss) for .bss
    ipc.o(.text) refers to kservice.o(.text) for rt_kprintf
    ipc.o(.text) refers to object.o(.text) for rt_object_init
    ipc.o(.text) refers to context_rvds.o(.text) for rt_hw_interrupt_disable
    ipc.o(.text) refers to thread.o(.text) for rt_thread_resume
    ipc.o(.text) refers to irq.o(.text) for rt_interrupt_get_nest
    ipc.o(.text) refers to timer.o(.text) for rt_timer_control
    ipc.o(.text) refers to scheduler.o(.text) for rt_schedule
    ipc.o(.text) refers to ipc.o(.constdata) for .constdata
    ipc.o(.text) refers to object.o(.data) for rt_object_trytake_hook
    ipc.o(.text) refers to mem.o(.text) for rt_malloc
    ipc.o(.text) refers to clock.o(.text) for rt_tick_get
    irq.o(.text) refers to context_rvds.o(.text) for rt_hw_interrupt_disable
    irq.o(.text) refers to irq.o(.data) for .data
    kservice.o(.text) refers to irq.o(.text) for rt_interrupt_get_nest
    kservice.o(.text) refers to thread.o(.text) for rt_thread_self
    kservice.o(.text) refers to kservice.o(.data) for .data
    kservice.o(.text) refers to mem.o(.text) for rt_malloc
    kservice.o(.text) refers to kservice.o(.constdata) for .constdata
    kservice.o(.text) refers to device.o(.text) for rt_device_write
    kservice.o(.text) refers to kservice.o(.bss) for .bss
    mem.o(.text) refers to context_rvds.o(.text) for rt_hw_interrupt_disable
    mem.o(.text) refers to irq.o(.text) for rt_interrupt_get_nest
    mem.o(.text) refers to kservice.o(.text) for rt_kprintf
    mem.o(.text) refers to ipc.o(.text) for rt_sem_init
    mem.o(.text) refers to mem.o(.data) for .data
    mem.o(.text) refers to mem.o(.constdata) for .constdata
    mem.o(.text) refers to mem.o(.bss) for .bss
    mem.o(.text) refers to mem.o(.conststring) for .conststring
    memheap.o(.text) refers to kservice.o(.text) for rt_kprintf
    memheap.o(.text) refers to object.o(.text) for rt_object_init
    memheap.o(.text) refers to ipc.o(.text) for rt_sem_init
    memheap.o(.text) refers to memheap.o(.constdata) for .constdata
    mempool.o(.text) refers to kservice.o(.text) for rt_kprintf
    mempool.o(.text) refers to object.o(.text) for rt_object_init
    mempool.o(.text) refers to context_rvds.o(.text) for rt_hw_interrupt_disable
    mempool.o(.text) refers to thread.o(.text) for rt_thread_resume
    mempool.o(.text) refers to irq.o(.text) for rt_interrupt_get_nest
    mempool.o(.text) refers to mem.o(.text) for rt_malloc
    mempool.o(.text) refers to clock.o(.text) for rt_tick_get
    mempool.o(.text) refers to timer.o(.text) for rt_timer_control
    mempool.o(.text) refers to scheduler.o(.text) for rt_schedule
    mempool.o(.text) refers to mempool.o(.data) for .data
    mempool.o(.text) refers to mempool.o(.constdata) for .constdata
    object.o(.text) refers to kservice.o(.text) for rt_strncpy
    object.o(.text) refers to context_rvds.o(.text) for rt_hw_interrupt_disable
    object.o(.text) refers to irq.o(.text) for rt_interrupt_get_nest
    object.o(.text) refers to mem.o(.text) for rt_malloc
    object.o(.text) refers to scheduler.o(.text) for rt_enter_critical
    object.o(.text) refers to object.o(.data) for .data
    object.o(.text) refers to object.o(.constdata) for .constdata
    object.o(.text) refers to irq.o(.data) for rt_interrupt_nest
    scheduler.o(.text) refers to kservice.o(.text) for __rt_ffs
    scheduler.o(.text) refers to context_rvds.o(.text) for rt_hw_context_switch_to
    scheduler.o(.text) refers to scheduler.o(.data) for .data
    scheduler.o(.text) refers to scheduler.o(.bss) for .bss
    scheduler.o(.text) refers to scheduler.o(.constdata) for .constdata
    scheduler.o(.text) refers to irq.o(.data) for rt_interrupt_nest
    thread.o(.text) refers to context_rvds.o(.text) for rt_hw_interrupt_disable
    thread.o(.text) refers to scheduler.o(.text) for rt_schedule_remove_thread
    thread.o(.text) refers to timer.o(.text) for rt_timer_detach
    thread.o(.text) refers to object.o(.text) for rt_object_is_systemobject
    thread.o(.text) refers to kservice.o(.text) for rt_kprintf
    thread.o(.text) refers to cpuport.o(.text) for rt_hw_stack_init
    thread.o(.text) refers to mem.o(.text) for rt_malloc
    thread.o(.text) refers to scheduler.o(.data) for rt_current_thread
    thread.o(.text) refers to thread.o(.constdata) for .constdata
    thread.o(.text) refers to scheduler.o(.bss) for rt_thread_priority_table
    thread.o(.text) refers to object.o(.data) for rt_object_container
    timer.o(.text) refers to kservice.o(.text) for rt_kprintf
    timer.o(.text) refers to object.o(.text) for rt_object_init
    timer.o(.text) refers to context_rvds.o(.text) for rt_hw_interrupt_disable
    timer.o(.text) refers to clock.o(.text) for rt_tick_get
    timer.o(.text) refers to timer.o(.data) for .data
    timer.o(.text) refers to timer.o(.constdata) for .constdata
    timer.o(.text) refers to object.o(.data) for rt_object_take_hook
    cpuport.o(.text) refers to kservice.o(.text) for rt_kprintf
    cpuport.o(.text) refers to thread.o(.text) for rt_thread_self
    cpuport.o(.text) refers to cpuport.o(.data) for .data
    cpuport.o(.text) refers to cpuport.o(.constdata) for .constdata
    context_rvds.o(.text) refers to cpuport.o(.text) for rt_hw_hard_fault_exception
    context_rvds.o(.text) refers to cpuport.o(.data) for rt_thread_switch_interrupt_flag
    context_rvds.o(.text) refers to cpuport.o(.data) for rt_interrupt_from_thread
    context_rvds.o(.text) refers to cpuport.o(.data) for rt_interrupt_to_thread
    showmem.o(.text) refers to kservice.o(.text) for rt_kprintf
    showmem.o(.text) refers to showmem.o(.constdata) for .constdata
    api_lib.o(.text) refers to api_msg.o(.text) for netconn_alloc
    api_lib.o(.text) refers to tcpip.o(.text) for tcpip_apimsg
    api_lib.o(.text) refers to kservice.o(.text) for rt_kprintf
    api_lib.o(.text) refers to sys_arch.o(.text) for sys_arch_assert
    api_lib.o(.text) refers to memp.o(.text) for memp_free
    api_msg.o(.text) refers to sys_arch.o(.text) for sys_mbox_valid
    api_msg.o(.text) refers to pbuf.o(.text) for pbuf_alloc
    api_msg.o(.text) refers to memp.o(.text) for memp_malloc
    api_msg.o(.text) refers to netbuf.o(.text) for netbuf_delete
    api_msg.o(.text) refers to kservice.o(.text) for rt_kprintf
    api_msg.o(.text) refers to tcp.o(.text) for tcp_recved
    api_msg.o(.text) refers to tcp_out.o(.text) for tcp_write
    api_msg.o(.text) refers to ip.o(.data) for current_iphdr_src
    api_msg.o(.text) refers to raw.o(.text) for raw_new
    api_msg.o(.text) refers to udp.o(.text) for udp_new
    api_msg.o(.text) refers to strcmpv7m.o(.text) for strcmp
    api_msg.o(.text) refers to dns.o(.text) for dns_gethostbyname
    netbuf.o(.text) refers to memp.o(.text) for memp_malloc
    netbuf.o(.text) refers to pbuf.o(.text) for pbuf_free
    netbuf.o(.text) refers to kservice.o(.text) for rt_kprintf
    netbuf.o(.text) refers to sys_arch.o(.text) for sys_arch_assert
    netdb.o(.text) refers to api_lib.o(.text) for netconn_gethostbyname
    netdb.o(.text) refers to strlen.o(.text) for strlen
    netdb.o(.text) refers to rt_memcpy_v6.o(.text) for __aeabi_memcpy
    netdb.o(.text) refers to memp.o(.text) for memp_free
    netdb.o(.text) refers to atoi.o(.text) for atoi
    netdb.o(.text) refers to kservice.o(.text) for rt_kprintf
    netdb.o(.text) refers to sys_arch.o(.text) for sys_arch_assert
    netdb.o(.text) refers to rt_memclr_w.o(.text) for __aeabi_memclr4
    netdb.o(.text) refers to def.o(.text) for lwip_htons
    netdb.o(.text) refers to netdb.o(.data) for .data
    netdb.o(.text) refers to netdb.o(.bss) for .bss
    netifapi.o(.text) refers to netif.o(.text) for netif_add
    netifapi.o(.text) refers to sys_arch.o(.text) for sys_sem_signal
    netifapi.o(.text) refers to tcpip.o(.text) for tcpip_netifapi
    sockets.o(.text) refers to sys_arch.o(.text) for sys_arch_protect
    sockets.o(.text) refers to kservice.o(.text) for _rt_errno
    sockets.o(.text) refers to api_lib.o(.text) for netconn_accept
    sockets.o(.text) refers to def.o(.text) for lwip_htons
    sockets.o(.text) refers to rt_memcpy_v6.o(.text) for __aeabi_memcpy
    sockets.o(.text) refers to pbuf.o(.text) for pbuf_free
    sockets.o(.text) refers to netbuf.o(.text) for netbuf_delete
    sockets.o(.text) refers to sockets.o(.bss) for .bss
    sockets.o(.text) refers to sockets.o(.data) for .data
    sockets.o(.text) refers to sockets.o(.constdata) for .constdata
    sockets.o(.text) refers to tcpip.o(.text) for tcpip_callback_with_block
    tcpip.o(.text) refers to timers.o(.text) for sys_timeouts_mbox_fetch
    tcpip.o(.text) refers to etharp.o(.text) for ethernet_input
    tcpip.o(.text) refers to ip.o(.text) for ip_input
    tcpip.o(.text) refers to memp.o(.text) for memp_free
    tcpip.o(.text) refers to kservice.o(.text) for rt_kprintf
    tcpip.o(.text) refers to sys_arch.o(.text) for sys_arch_assert
    tcpip.o(.text) refers to init.o(.text) for lwip_init
    tcpip.o(.text) refers to pbuf.o(.text) for pbuf_free
    tcpip.o(.text) refers to tcpip.o(.data) for .data
    tcpip.o(.text) refers to mem.o(.text) for rt_free
    sys_arch.o(.text) refers to device.o(.text) for rt_device_init
    sys_arch.o(.text) refers to thread.o(.text) for rt_thread_self
    sys_arch.o(.text) refers to kservice.o(.text) for rt_kprintf
    sys_arch.o(.text) refers to scheduler.o(.text) for rt_enter_critical
    sys_arch.o(.text) refers to netif.o(.text) for netif_add
    sys_arch.o(.text) refers to dhcp.o(.text) for dhcp_start
    sys_arch.o(.text) refers to ipc.o(.text) for rt_sem_release
    sys_arch.o(.text) refers to tcpip.o(.text) for tcpip_init
    sys_arch.o(.text) refers to netifapi.o(.text) for netifapi_netif_set_addr
    sys_arch.o(.text) refers to context_rvds.o(.text) for rt_hw_interrupt_disable
    sys_arch.o(.text) refers to irq.o(.text) for rt_interrupt_get_nest
    sys_arch.o(.text) refers to clock.o(.text) for rt_tick_get
    sys_arch.o(.text) refers to sys_arch.o(.constdata) for .constdata
    sys_arch.o(.text) refers to object.o(.data) for rt_object_container
    sys_arch.o(.text) refers to netif.o(.data) for netif_default
    sys_arch.o(.text) refers to startup.o(.data) for BOOL_DHCP
    sys_arch.o(.text) refers to startup.o(.data) for RT_LWIP_IPADDR3
    sys_arch.o(.text) refers to startup.o(.data) for RT_LWIP_IPADDR2
    sys_arch.o(.text) refers to startup.o(.data) for RT_LWIP_IPADDR1
    sys_arch.o(.text) refers to startup.o(.data) for RT_LWIP_IPADDR0
    sys_arch.o(.text) refers to startup.o(.data) for RT_LWIP_GWADDR3
    sys_arch.o(.text) refers to startup.o(.data) for RT_LWIP_GWADDR2
    sys_arch.o(.text) refers to startup.o(.data) for RT_LWIP_GWADDR1
    sys_arch.o(.text) refers to startup.o(.data) for RT_LWIP_GWADDR0
    sys_arch.o(.text) refers to startup.o(.data) for RT_LWIP_MSKADDR3
    sys_arch.o(.text) refers to startup.o(.data) for RT_LWIP_MSKADDR2
    sys_arch.o(.text) refers to startup.o(.data) for RT_LWIP_MSKADDR1
    sys_arch.o(.text) refers to startup.o(.data) for RT_LWIP_MSKADDR0
    sys_arch.o(.text) refers to sys_arch.o(.data) for .data
    sys_arch.o(.rti_fn.3) refers to sys_arch.o(.text) for lwip_system_init
    dhcp.o(.text) refers to kservice.o(.text) for rt_kprintf
    dhcp.o(.text) refers to sys_arch.o(.text) for sys_arch_assert
    dhcp.o(.text) refers to pbuf.o(.text) for pbuf_free
    dhcp.o(.text) refers to rand.o(.text) for rand
    dhcp.o(.text) refers to def.o(.text) for lwip_htonl
    dhcp.o(.text) refers to rt_memclr.o(.text) for __aeabi_memclr
    dhcp.o(.text) refers to dhcp.o(.conststring) for .conststring
    dhcp.o(.text) refers to dhcp.o(.data) for .data
    dhcp.o(.text) refers to udp.o(.text) for udp_sendto_if
    dhcp.o(.text) refers to ip_addr.o(.constdata) for ip_addr_broadcast
    dhcp.o(.text) refers to netif.o(.data) for netif_list
    dhcp.o(.text) refers to netif.o(.text) for netif_set_down
    dhcp.o(.text) refers to etharp.o(.text) for etharp_query
    dhcp.o(.text) refers to mem.o(.text) for rt_free
    dhcp.o(.text) refers to dhcp.o(i.__ARM_common_memclr4_10) for __ARM_common_memclr4_10
    dhcp.o(.text) refers to ip_addr.o(.constdata) for ip_addr_any
    dhcp.o(.text) refers to dhcp.o(.bss) for .bss
    dhcp.o(.text) refers to dns.o(.text) for dns_setserver
    dns.o(.text) refers to pbuf.o(.text) for pbuf_copy_partial
    dns.o(.text) refers to def.o(.text) for lwip_htons
    dns.o(.text) refers to ip_addr.o(.text) for ipaddr_addr
    dns.o(.text) refers to udp.o(.text) for udp_new
    dns.o(.text) refers to kservice.o(.text) for rt_kprintf
    dns.o(.text) refers to sys_arch.o(.text) for sys_arch_assert
    dns.o(.text) refers to strlen.o(.text) for strlen
    dns.o(.text) refers to strcmpv7m.o(.text) for strcmp
    dns.o(.text) refers to dns.o(.data) for .data
    dns.o(.text) refers to dns.o(.bss) for .bss
    dns.o(.text) refers to ip_addr.o(.constdata) for ip_addr_any
    dns.o(.text) refers to rt_memcpy_v6.o(.text) for __aeabi_memcpy
    init.o(.text) refers to sys_arch.o(.text) for sys_init
    init.o(.text) refers to memp.o(.text) for memp_init
    init.o(.text) refers to netif.o(.text) for netif_init
    init.o(.text) refers to sockets.o(.text) for lwip_socket_init
    init.o(.text) refers to udp.o(.text) for udp_init
    init.o(.text) refers to tcp.o(.text) for tcp_init
    init.o(.text) refers to dns.o(.text) for dns_init
    init.o(.text) refers to timers.o(.text) for sys_timeouts_init
    memp.o(.text) refers to kservice.o(.text) for rt_kprintf
    memp.o(.text) refers to sys_arch.o(.text) for sys_arch_assert
    memp.o(.text) refers to memp.o(.bss) for .bss
    memp.o(.text) refers to memp.o(.constdata) for .constdata
    netif.o(.text) refers to tcp.o(.text) for tcp_abort
    netif.o(.text) refers to kservice.o(.text) for rt_kprintf
    netif.o(.text) refers to sys_arch.o(.text) for sys_arch_assert
    netif.o(.text) refers to etharp.o(.text) for etharp_cleanup_netif
    netif.o(.text) refers to dhcp.o(.text) for dhcp_network_changed
    netif.o(.text) refers to tcp.o(.data) for tcp_active_pcbs
    netif.o(.text) refers to netif.o(.data) for .data
    pbuf.o(.text) refers to sys_arch.o(.text) for sys_arch_protect
    pbuf.o(.text) refers to tcp.o(.text) for tcp_segs_free
    pbuf.o(.text) refers to kservice.o(.text) for rt_kprintf
    pbuf.o(.text) refers to mem.o(.text) for rt_free
    pbuf.o(.text) refers to memp.o(.text) for memp_free
    pbuf.o(.text) refers to tcpip.o(.text) for tcpip_callback_with_block
    pbuf.o(.text) refers to pbuf.o(.data) for .data
    pbuf.o(.text) refers to tcp.o(.data) for tcp_active_pcbs
    pbuf.o(.text) refers to rt_memcpy_v6.o(.text) for __aeabi_memcpy
    pbuf.o(.text) refers to strlen.o(.text) for strlen
    raw.o(.text) refers to pbuf.o(.text) for pbuf_header
    raw.o(.text) refers to kservice.o(.text) for rt_kprintf
    raw.o(.text) refers to sys_arch.o(.text) for sys_arch_assert
    raw.o(.text) refers to ip.o(.text) for ip_route
    raw.o(.text) refers to memp.o(.text) for memp_free
    raw.o(.text) refers to raw.o(.data) for .data
    raw.o(.text) refers to ip.o(.data) for current_iphdr_dest
    sys.o(.text) refers to sys_arch.o(.text) for sys_sem_new
    tcp.o(.text) refers to pbuf.o(.text) for pbuf_free
    tcp.o(.text) refers to memp.o(.text) for memp_free
    tcp.o(.text) refers to kservice.o(.text) for rt_kprintf
    tcp.o(.text) refers to sys_arch.o(.text) for sys_arch_assert
    tcp.o(.text) refers to tcp_out.o(.text) for tcp_zero_window_probe
    tcp.o(.text) refers to tcp.o(.data) for .data
    tcp.o(.text) refers to tcp.o(.constdata) for .constdata
    tcp.o(.text) refers to timers.o(.text) for tcp_timer_needed
    tcp.o(.text) refers to ip.o(.text) for ip_route
    tcp.o(.text) refers to rt_memclr_w.o(.text) for __aeabi_memclr4
    tcp.o(.constdata) refers to tcp.o(.conststring) for .conststring
    tcp.o(.constdata) refers to tcp.o(.data) for tcp_listen_pcbs
    tcp_in.o(.text) refers to kservice.o(.text) for rt_kprintf
    tcp_in.o(.text) refers to sys_arch.o(.text) for sys_arch_assert
    tcp_in.o(.text) refers to tcp_out.o(.text) for tcp_rexmit_fast
    tcp_in.o(.text) refers to def.o(.text) for lwip_ntohl
    tcp_in.o(.text) refers to pbuf.o(.text) for pbuf_clen
    tcp_in.o(.text) refers to tcp.o(.text) for tcp_seg_free
    tcp_in.o(.text) refers to tcp_in.o(.data) for .data
    tcp_in.o(.text) refers to tcp.o(.data) for tcp_ticks
    tcp_in.o(.text) refers to tcp_in.o(.bss) for .bss
    tcp_in.o(.text) refers to ip_addr.o(.text) for ip4_addr_isbroadcast
    tcp_in.o(.text) refers to inet_chksum.o(.text) for inet_chksum_pseudo
    tcp_in.o(.text) refers to ip.o(.data) for current_iphdr_dest
    tcp_in.o(.text) refers to timers.o(.text) for tcp_timer_needed
    tcp_in.o(.text) refers to memp.o(.text) for memp_free
    tcp_out.o(.text) refers to kservice.o(.text) for rt_kprintf
    tcp_out.o(.text) refers to sys_arch.o(.text) for sys_arch_assert
    tcp_out.o(.text) refers to pbuf.o(.text) for pbuf_alloc
    tcp_out.o(.text) refers to memp.o(.text) for memp_malloc
    tcp_out.o(.text) refers to tcp.o(.text) for tcp_seg_free
    tcp_out.o(.text) refers to def.o(.text) for lwip_htons
    tcp_out.o(.text) refers to rt_memcpy_v6.o(.text) for __aeabi_memcpy
    tcp_out.o(.text) refers to tcp_out.o(.conststring) for .conststring
    tcp_out.o(.text) refers to inet_chksum.o(.text) for inet_chksum_pseudo
    tcp_out.o(.text) refers to ip.o(.text) for ip_output
    tcp_out.o(.text) refers to tcp_in.o(.data) for tcp_input_pcb
    tcp_out.o(.text) refers to tcp.o(.data) for tcp_ticks
    timers.o(.text) refers to memp.o(.text) for memp_malloc
    timers.o(.text) refers to kservice.o(.text) for rt_kprintf
    timers.o(.text) refers to sys_arch.o(.text) for sys_arch_assert
    timers.o(.text) refers to tcp.o(.text) for tcp_tmr
    timers.o(.text) refers to etharp.o(.text) for etharp_tmr
    timers.o(.text) refers to dhcp.o(.text) for dhcp_coarse_tmr
    timers.o(.text) refers to dns.o(.text) for dns_tmr
    timers.o(.text) refers to timers.o(.data) for .data
    timers.o(.text) refers to tcp.o(.data) for tcp_active_pcbs
    udp.o(.text) refers to pbuf.o(.text) for pbuf_header
    udp.o(.text) refers to ip_addr.o(.text) for ip4_addr_isbroadcast
    udp.o(.text) refers to def.o(.text) for lwip_ntohs
    udp.o(.text) refers to inet_chksum.o(.text) for inet_chksum_pseudo
    udp.o(.text) refers to kservice.o(.text) for rt_kprintf
    udp.o(.text) refers to sys_arch.o(.text) for sys_arch_assert
    udp.o(.text) refers to icmp.o(.text) for icmp_dest_unreach
    udp.o(.text) refers to ip.o(.text) for ip_output_if
    udp.o(.text) refers to ip.o(.data) for current_iphdr_dest
    udp.o(.text) refers to udp.o(.data) for .data
    udp.o(.text) refers to memp.o(.text) for memp_free
    icmp.o(.text) refers to pbuf.o(.text) for pbuf_header
    icmp.o(.text) refers to ip_addr.o(.text) for ip4_addr_isbroadcast
    icmp.o(.text) refers to inet_chksum.o(.text) for inet_chksum_pbuf
    icmp.o(.text) refers to kservice.o(.text) for rt_kprintf
    icmp.o(.text) refers to sys_arch.o(.text) for sys_arch_assert
    icmp.o(.text) refers to ip.o(.text) for ip_output_if
    icmp.o(.text) refers to rt_memcpy_v6.o(.text) for __aeabi_memcpy
    icmp.o(.text) refers to ip.o(.data) for current_iphdr_dest
    inet_chksum.o(.text) refers to def.o(.text) for lwip_htons
    inet_chksum.o(.text) refers to kservice.o(.text) for rt_kprintf
    inet_chksum.o(.text) refers to sys_arch.o(.text) for sys_arch_assert
    ip.o(.text) refers to def.o(.text) for lwip_ntohs
    ip.o(.text) refers to inet_chksum.o(.text) for inet_chksum
    ip.o(.text) refers to pbuf.o(.text) for pbuf_realloc
    ip.o(.text) refers to ip_addr.o(.text) for ip4_addr_isbroadcast
    ip.o(.text) refers to raw.o(.text) for raw_input
    ip.o(.text) refers to udp.o(.text) for udp_input
    ip.o(.text) refers to tcp_in.o(.text) for tcp_input
    ip.o(.text) refers to icmp.o(.text) for icmp_input
    ip.o(.text) refers to kservice.o(.text) for rt_kprintf
    ip.o(.text) refers to sys_arch.o(.text) for sys_arch_assert
    ip.o(.text) refers to netif.o(.data) for netif_list
    ip.o(.text) refers to ip.o(.data) for .data
    ip_addr.o(.text) refers to def.o(.text) for lwip_htonl
    ip_addr.o(.text) refers to kservice.o(.text) for rt_kprintf
    ip_addr.o(.text) refers to sys_arch.o(.text) for sys_arch_assert
    ip_addr.o(.text) refers to ip_addr.o(.bss) for .bss
    etharp.o(.text) refers to kservice.o(.text) for rt_kprintf
    etharp.o(.text) refers to sys_arch.o(.text) for sys_arch_assert
    etharp.o(.text) refers to pbuf.o(.text) for pbuf_free
    etharp.o(.text) refers to memp.o(.text) for memp_free
    etharp.o(.text) refers to def.o(.text) for lwip_htons
    etharp.o(.text) refers to ip_addr.o(.text) for ip4_addr_isbroadcast
    etharp.o(.text) refers to etharp.o(.bss) for .bss
    etharp.o(.text) refers to etharp.o(.conststring) for .conststring
    etharp.o(.text) refers to etharp.o(.constdata) for .constdata
    etharp.o(.text) refers to memcmp.o(.text) for memcmp
    etharp.o(.text) refers to ip.o(.text) for ip_input
    etharp.o(.text) refers to etharp.o(.data) for .data
    etharp.o(.text) refers to dhcp.o(.text) for dhcp_arp_reply
    ethernetif.o(.text) refers to ipc.o(.text) for rt_mb_send
    ethernetif.o(.text) refers to device.o(.text) for rt_device_init
    ethernetif.o(.text) refers to netif.o(.text) for netif_set_default
    ethernetif.o(.text) refers to dhcp.o(.text) for dhcp_start
    ethernetif.o(.text) refers to mem.o(.text) for rt_malloc
    ethernetif.o(.text) refers to kservice.o(.text) for rt_memset
    ethernetif.o(.text) refers to thread.o(.text) for rt_thread_find
    ethernetif.o(.text) refers to netifapi.o(.text) for netifapi_netif_add
    ethernetif.o(.text) refers to context_rvds.o(.text) for rt_hw_interrupt_disable
    ethernetif.o(.text) refers to sys_arch.o(.text) for sys_arch_assert
    ethernetif.o(.text) refers to pbuf.o(.text) for pbuf_free
    ethernetif.o(.text) refers to ethernetif.o(.bss) for .bss
    ethernetif.o(.text) refers to netif.o(.data) for netif_default
    ethernetif.o(.text) refers to startup.o(.data) for BOOL_DHCP
    ethernetif.o(.text) refers to etharp.o(.text) for etharp_output
    ethernetif.o(.text) refers to tcpip.o(.text) for tcpip_input
    ethernetif.o(.text) refers to startup.o(.data) for RT_LWIP_IPADDR3
    ethernetif.o(.text) refers to startup.o(.data) for RT_LWIP_IPADDR2
    ethernetif.o(.text) refers to startup.o(.data) for RT_LWIP_IPADDR1
    ethernetif.o(.text) refers to startup.o(.data) for RT_LWIP_IPADDR0
    ethernetif.o(.text) refers to startup.o(.data) for RT_LWIP_GWADDR3
    ethernetif.o(.text) refers to startup.o(.data) for RT_LWIP_GWADDR2
    ethernetif.o(.text) refers to startup.o(.data) for RT_LWIP_GWADDR1
    ethernetif.o(.text) refers to startup.o(.data) for RT_LWIP_GWADDR0
    ethernetif.o(.text) refers to startup.o(.data) for RT_LWIP_MSKADDR3
    ethernetif.o(.text) refers to startup.o(.data) for RT_LWIP_MSKADDR2
    ethernetif.o(.text) refers to startup.o(.data) for RT_LWIP_MSKADDR1
    ethernetif.o(.text) refers to startup.o(.data) for RT_LWIP_MSKADDR0
    ethernetif.o(.text) refers to ethernetif.o(.constdata) for .constdata
    ethernetif.o(.rti_fn.2) refers to ethernetif.o(.text) for eth_system_device_init
    dfs.o(.text) refers to kservice.o(.text) for rt_memset
    dfs.o(.text) refers to ipc.o(.text) for rt_mutex_init
    dfs.o(.text) refers to strlen.o(.text) for strlen
    dfs.o(.text) refers to mem.o(.text) for rt_malloc
    dfs.o(.text) refers to dfs_fs.o(.text) for dfs_filesystem_lookup
    dfs.o(.text) refers to strcmpv7m.o(.text) for strcmp
    dfs.o(.text) refers to dfs.o(.bss) for .bss
    dfs.o(.text) refers to dfs.o(.data) for .data
    dfs.o(.text) refers to dfs.o(.constdata) for .constdata
    dfs.o(.rti_fn.3) refers to dfs.o(.text) for dfs_init
    dfs_file.o(.text) refers to dfs.o(.text) for dfs_normalize_path
    dfs_file.o(.text) refers to dfs_fs.o(.text) for dfs_filesystem_lookup
    dfs_file.o(.text) refers to mem.o(.text) for rt_free
    dfs_file.o(.text) refers to kservice.o(.text) for rt_memset
    dfs_fs.o(.text) refers to dfs.o(.text) for dfs_lock
    dfs_fs.o(.text) refers to kservice.o(.text) for rt_kprintf
    dfs_fs.o(.text) refers to strlen.o(.text) for strlen
    dfs_fs.o(.text) refers to strncmp.o(.text) for strncmp
    dfs_fs.o(.text) refers to device.o(.text) for rt_device_find
    dfs_fs.o(.text) refers to strcmpv7m.o(.text) for strcmp
    dfs_fs.o(.text) refers to dfs_file.o(.text) for dfs_file_open
    dfs_fs.o(.text) refers to mem.o(.text) for rt_free
    dfs_fs.o(.text) refers to dfs_fs.o(.constdata) for .constdata
    dfs_fs.o(.text) refers to dfs.o(.bss) for filesystem_table
    dfs_posix.o(.text) refers to dfs.o(.text) for fd_new
    dfs_posix.o(.text) refers to kservice.o(.text) for rt_set_errno
    dfs_posix.o(.text) refers to dfs_file.o(.text) for dfs_file_open
    dfs_posix.o(.text) refers to dfs_fs.o(.text) for dfs_statfs
    dfs_posix.o(.text) refers to mem.o(.text) for rt_malloc
    dfs_posix.o(.text) refers to strncpy.o(.text) for strncpy
    dfs_posix.o(.text) refers to scheduler.o(.text) for rt_enter_critical
    dfs_posix.o(.text) refers to dfs.o(.data) for working_directory
    dfs_elm.o(.text) refers to device.o(.text) for rt_device_control
    dfs_elm.o(.text) refers to kservice.o(.text) for rt_kprintf
    dfs_elm.o(.text) refers to mem.o(.text) for rt_malloc
    dfs_elm.o(.text) refers to ff.o(.text) for f_mount
    dfs_elm.o(.text) refers to dfs_elm.o(.data) for .data
    dfs_elm.o(.text) refers to dfs_elm.o(.conststring) for .conststring
    dfs_elm.o(.text) refers to dfs_elm.o(.constdata) for .constdata
    dfs_elm.o(.text) refers to mktime.o(.text) for mktime
    dfs_elm.o(.text) refers to dfs_fs.o(.text) for dfs_register
    dfs_elm.o(.constdata) refers to dfs_elm.o(.conststring) for .conststring
    dfs_elm.o(.constdata) refers to dfs_elm.o(.text) for dfs_elm_mount
    dfs_elm.o(.rti_fn.4) refers to dfs_elm.o(.text) for elm_init
    ff.o(.text) refers to dfs_elm.o(.text) for disk_write
    ff.o(.text) refers to ff.o(.data) for .data
    ff.o(.text) refers to ff.o(.constdata) for .constdata
    tcpserver.o(.text) refers to mem.o(.text) for rt_malloc
    tcpserver.o(.text) refers to sockets.o(.text) for lwip_socket
    tcpserver.o(.text) refers to def.o(.text) for lwip_htons
    tcpserver.o(.text) refers to kservice.o(.text) for rt_memset
    tcpserver.o(.text) refers to gpib.o(.text) for care_protocol_state
    tcpserver.o(.text) refers to rt_memclr.o(.text) for __aeabi_memclr
    tcpserver.o(.text) refers to startup.o(.data) for TCP_SERVER_PORT
    tcpserver.o(.text) refers to tcpserver.o(.bss) for .bss
    tcpserver.o(.text) refers to tcpserver.o(.data) for .data
    iap.o(.text) refers to system_lpc17xx.o(.data) for SystemCoreClock
    iap.o(.text) refers to iap.o(.bss) for .bss
    iap.o(.text) refers to startup.o(.data) for USB_GPIB_PORT
    iap.o(.text) refers to startup.o(.data) for WIFI_GPIB_PORT
    iap.o(.text) refers to startup.o(.data) for LAN_GPIB_PORT
    iap.o(.text) refers to startup.o(.data) for RT_LWIP_IPADDR0
    iap.o(.text) refers to startup.o(.data) for RT_LWIP_IPADDR1
    iap.o(.text) refers to startup.o(.data) for RT_LWIP_IPADDR2
    iap.o(.text) refers to startup.o(.data) for RT_LWIP_IPADDR3
    iap.o(.text) refers to startup.o(.data) for RT_LWIP_GWADDR0
    iap.o(.text) refers to startup.o(.data) for RT_LWIP_GWADDR1
    iap.o(.text) refers to startup.o(.data) for RT_LWIP_GWADDR2
    iap.o(.text) refers to startup.o(.data) for RT_LWIP_GWADDR3
    iap.o(.text) refers to startup.o(.data) for TCP_SERVER_PORT
    iap.o(.text) refers to startup.o(.data) for BOOL_DHCP
    iap.o(.text) refers to startup.o(.data) for UDP_SERVER_PORT
    iap.o(.text) refers to startup.o(.data) for RT_LWIP_MSKADDR0
    iap.o(.text) refers to startup.o(.data) for RT_LWIP_MSKADDR1
    iap.o(.text) refers to startup.o(.data) for RT_LWIP_MSKADDR2
    iap.o(.text) refers to startup.o(.data) for RT_LWIP_MSKADDR3
    iap.o(.text) refers to startup.o(.data) for UART0_BAUDRATE
    iap.o(.text) refers to startup.o(.data) for UART1_BAUDRATE
    iap.o(.text) refers to startup.o(.data) for GPIB_WAIT_TIME
    iap.o(.text) refers to startup.o(.data) for UART_Auto_Mode
    iap.o(.text) refers to aeabi_memset.o(.text) for __aeabi_memset
    cdcuser.o(.text) refers to serial.o(.text) for ser_LineState
    cdcuser.o(.text) refers to usbhw.o(.text) for USB_WriteEP
    cdcuser.o(.text) refers to cdcuser.o(.bss) for .bss
    cdcuser.o(.text) refers to cdcuser.o(.data) for .data
    cdcuser.o(.text) refers to usbcore.o(.data) for EP0Buf
    serial.o(.text) refers to serial.o(.bss) for .bss
    serial.o(.text) refers to serial.o(.data) for .data
    usbcore.o(.text) refers to usbhw.o(.text) for USB_ReadEP
    usbcore.o(.text) refers to usbcore.o(.data) for .data
    usbcore.o(.text) refers to usbdesc.o(.constdata) for USB_DeviceDescriptor
    usbcore.o(.text) refers to usbdesc.o(.constdata) for USB_ConfigDescriptor
    usbcore.o(.text) refers to usbdesc.o(.constdata) for USB_StringDescriptor
    usbcore.o(.text) refers to usbuser.o(.text) for USB_Configure_Event
    usbcore.o(.text) refers to cdcuser.o(.text) for CDC_GetEncapsulatedResponse
    usbhw.o(.text) refers to usbhw.o(.data) for .data
    usbhw.o(.text) refers to usbcore.o(.data) for USB_DeviceStatus
    usbhw.o(.text) refers to usbuser.o(.text) for USB_Reset_Event
    usbuser.o(.text) refers to usbcore.o(.text) for USB_ResetCore
    usbuser.o(.text) refers to cdcuser.o(.text) for CDC_GetSerialState
    usbuser.o(.text) refers to usbuser.o(.data) for .data
    usbuser.o(.constdata) refers to usbcore.o(.text) for USB_EndPoint0
    usbuser.o(.constdata) refers to usbuser.o(.text) for USB_EndPoint1
    vcom.o(.text) refers to cdcuser.o(.text) for CDC_Init
    vcom.o(.text) refers to serial.o(.text) for ser_AvailChar
    vcom.o(.text) refers to usbhw.o(.text) for USB_WriteEP
    vcom.o(.text) refers to cdcuser.o(.data) for CDC_DepInEmpty
    vcom.o(.text) refers to vcom.o(.bss) for .bss
    vcom.o(.text) refers to vcom.o(.data) for .data
    toupper.o(.text) refers to rt_ctype_table.o(.text) for __rt_ctype_table
    __2sprintf.o(.text) refers to _printf_char_common.o(.text) for _printf_char_common
    __2sprintf.o(.text) refers to _sputc.o(.text) for _sputc
    noretval__2sprintf.o(.text) refers to _printf_char_common.o(.text) for _printf_char_common
    noretval__2sprintf.o(.text) refers to _sputc.o(.text) for _sputc
    __printf.o(.text) refers to _printf_percent.o(.ARM.Collect$$_printf_percent$$00000000) for _printf_percent
    _printf_dec.o(.text) refers to _printf_intcommon.o(.text) for _printf_int_common
    __printf_flags.o(.text) refers to _printf_percent.o(.ARM.Collect$$_printf_percent$$00000000) for _printf_percent
    __printf_flags.o(.text) refers to __printf_flags.o(.constdata) for .constdata
    __printf_ss.o(.text) refers to _printf_percent.o(.ARM.Collect$$_printf_percent$$00000000) for _printf_percent
    __printf_flags_ss.o(.text) refers to _printf_percent.o(.ARM.Collect$$_printf_percent$$00000000) for _printf_percent
    __printf_flags_ss.o(.text) refers to __printf_flags_ss.o(.constdata) for .constdata
    __printf_wp.o(.text) refers to __printf_wp.o(i._is_digit) for _is_digit
    __printf_wp.o(.text) refers to _printf_percent.o(.ARM.Collect$$_printf_percent$$00000000) for _printf_percent
    __printf_flags_wp.o(.text) refers to __printf_wp.o(i._is_digit) for _is_digit
    __printf_flags_wp.o(.text) refers to _printf_percent.o(.ARM.Collect$$_printf_percent$$00000000) for _printf_percent
    __printf_flags_wp.o(.text) refers to __printf_flags_wp.o(.constdata) for .constdata
    __printf_ss_wp.o(.text) refers to __printf_wp.o(i._is_digit) for _is_digit
    __printf_ss_wp.o(.text) refers to _printf_percent.o(.ARM.Collect$$_printf_percent$$00000000) for _printf_percent
    __printf_flags_ss_wp.o(.text) refers to __printf_wp.o(i._is_digit) for _is_digit
    __printf_flags_ss_wp.o(.text) refers to _printf_percent.o(.ARM.Collect$$_printf_percent$$00000000) for _printf_percent
    __printf_flags_ss_wp.o(.text) refers to __printf_flags_ss_wp.o(.constdata) for .constdata
    _printf_d.o(.ARM.Collect$$_printf_percent$$00000009) refers (Weak) to _printf_dec.o(.text) for _printf_int_dec
    _printf_percent.o(.ARM.Collect$$_printf_percent$$00000000) refers (Special) to _printf_percent_end.o(.ARM.Collect$$_printf_percent$$00000017) for _printf_percent_end
    atoi.o(.text) refers to rt_errno_addr_intlibspace.o(.text) for __aeabi_errno_addr
    atoi.o(.text) refers to strtol.o(.text) for strtol
    rt_memcpy_v6.o(.text) refers to rt_memcpy_w.o(.text) for __aeabi_memcpy4
    aeabi_memset.o(.text) refers to rt_memclr.o(.text) for _memset
    rt_memclr.o(.text) refers to rt_memclr_w.o(.text) for _memset_w
    strncpy.o(.text) refers to rt_memclr.o(.text) for __aeabi_memclr
    mktime.o(.text) refers to _monlen.o(.constdata) for _monlen
    __main.o(!!!main) refers to __rtentry.o(.ARM.Collect$$rtentry$$00000000) for __rt_entry
    __rtentry.o(.ARM.Collect$$rtentry$$00000000) refers (Special) to __rtentry2.o(.ARM.Collect$$rtentry$$0000000A) for __rt_entry_li
    __rtentry.o(.ARM.Collect$$rtentry$$00000000) refers (Special) to __rtentry2.o(.ARM.Collect$$rtentry$$0000000D) for __rt_entry_main
    __rtentry.o(.ARM.Collect$$rtentry$$00000000) refers (Special) to __rtentry2.o(.ARM.Collect$$rtentry$$0000000C) for __rt_entry_postli_1
    __rtentry.o(.ARM.Collect$$rtentry$$00000000) refers (Special) to __rtentry2.o(.ARM.Collect$$rtentry$$00000009) for __rt_entry_postsh_1
    __rtentry.o(.ARM.Collect$$rtentry$$00000000) refers (Special) to __rtentry2.o(.ARM.Collect$$rtentry$$00000002) for __rt_entry_presh_1
    __rtentry.o(.ARM.Collect$$rtentry$$00000000) refers (Special) to __rtentry4.o(.ARM.Collect$$rtentry$$00000004) for __rt_entry_sh
    rt_ctype_table.o(.text) refers to rt_locale_intlibspace.o(.text) for __rt_locale
    rt_ctype_table.o(.text) refers to lc_ctype_c.o(locale$$code) for _get_lc_ctype
    rt_errno_addr.o(.text) refers to rt_errno_addr.o(.bss) for __aeabi_errno_addr_data
    rt_errno_addr_intlibspace.o(.text) refers to libspace.o(.bss) for __libspace_start
    _printf_intcommon.o(.text) refers (Weak) to _printf_pad.o(.text) for _printf_pre_padding
    _printf_intcommon.o(.text) refers (Weak) to _printf_pad.o(.text) for _printf_pre_padding
    _printf_intcommon.o(.text) refers (Weak) to _printf_pad.o(.text) for _printf_post_padding
    _printf_char_common.o(.text) refers to __printf_flags_wp.o(.text) for __printf
    strtol.o(.text) refers to rt_ctype_table.o(.text) for __rt_ctype_table
    strtol.o(.text) refers to _strtoul.o(.text) for _strtoul
    strtol.o(.text) refers to rt_errno_addr_intlibspace.o(.text) for __aeabi_errno_addr
    libspace.o(.text) refers to libspace.o(.bss) for __libspace_start
    __rtentry2.o(.ARM.Collect$$rtentry$$00000008) refers to boardinit2.o(.text) for _platform_post_stackheap_init
    __rtentry2.o(.ARM.Collect$$rtentry$$0000000A) refers to libinit.o(.ARM.Collect$$libinit$$00000000) for __rt_lib_init
    __rtentry2.o(.ARM.Collect$$rtentry$$0000000B) refers to boardinit3.o(.text) for _platform_post_lib_init
    __rtentry2.o(.ARM.Collect$$rtentry$$0000000D) refers to startup.o(.text) for main
    __rtentry2.o(.ARM.Collect$$rtentry$$0000000D) refers to exit.o(.text) for exit
    __rtentry2.o(.ARM.exidx) refers to __rtentry2.o(.ARM.Collect$$rtentry$$00000001) for .ARM.Collect$$rtentry$$00000001
    __rtentry2.o(.ARM.exidx) refers to __rtentry2.o(.ARM.Collect$$rtentry$$00000008) for .ARM.Collect$$rtentry$$00000008
    __rtentry2.o(.ARM.exidx) refers to __rtentry2.o(.ARM.Collect$$rtentry$$0000000A) for .ARM.Collect$$rtentry$$0000000A
    __rtentry2.o(.ARM.exidx) refers to __rtentry2.o(.ARM.Collect$$rtentry$$0000000B) for .ARM.Collect$$rtentry$$0000000B
    __rtentry2.o(.ARM.exidx) refers to __rtentry2.o(.ARM.Collect$$rtentry$$0000000D) for .ARM.Collect$$rtentry$$0000000D
    __rtentry4.o(.ARM.Collect$$rtentry$$00000004) refers to sys_stackheap_outer.o(.text) for __user_setup_stackheap
    __rtentry4.o(.ARM.exidx) refers to __rtentry4.o(.ARM.Collect$$rtentry$$00000004) for .ARM.Collect$$rtentry$$00000004
    rt_locale.o(.text) refers to rt_locale.o(.bss) for __rt_locale_data
    rt_locale_intlibspace.o(.text) refers to libspace.o(.bss) for __libspace_start
    _strtoul.o(.text) refers to _chval.o(.text) for _chval
    _strtoul.o(.text) refers to rt_errno_addr_intlibspace.o(.text) for __aeabi_errno_addr
    lc_ctype_c.o(locale$$data) refers (Special) to libinit2.o(.ARM.Collect$$libinit$$00000012) for __rt_lib_init_lc_ctype_2
    lc_ctype_c.o(locale$$code) refers (Special) to libinit2.o(.ARM.Collect$$libinit$$00000012) for __rt_lib_init_lc_ctype_2
    lc_ctype_c.o(locale$$code) refers to strcmpv7m.o(.text) for strcmp
    lc_ctype_c.o(locale$$code) refers to lc_ctype_c.o(locale$$data) for __lcctype_c_name
    sys_stackheap_outer.o(.text) refers to libspace.o(.text) for __user_perproc_libspace
    sys_stackheap_outer.o(.text) refers to startup_lpc17xx.o(.text) for __user_initial_stackheap
    exit.o(.text) refers to rtexit.o(.ARM.Collect$$rtexit$$00000000) for __rt_exit
    libinit.o(.ARM.Collect$$libinit$$00000000) refers (Special) to libinit2.o(.ARM.Collect$$libinit$$0000002E) for __rt_lib_init_alloca_1
    libinit.o(.ARM.Collect$$libinit$$00000000) refers (Special) to libinit2.o(.ARM.Collect$$libinit$$0000002C) for __rt_lib_init_argv_1
    libinit.o(.ARM.Collect$$libinit$$00000000) refers (Special) to libinit2.o(.ARM.Collect$$libinit$$0000001B) for __rt_lib_init_atexit_1
    libinit.o(.ARM.Collect$$libinit$$00000000) refers (Special) to libinit2.o(.ARM.Collect$$libinit$$00000021) for __rt_lib_init_clock_1
    libinit.o(.ARM.Collect$$libinit$$00000000) refers (Special) to libinit2.o(.ARM.Collect$$libinit$$00000032) for __rt_lib_init_cpp_1
    libinit.o(.ARM.Collect$$libinit$$00000000) refers (Special) to libinit2.o(.ARM.Collect$$libinit$$00000030) for __rt_lib_init_exceptions_1
    libinit.o(.ARM.Collect$$libinit$$00000000) refers (Special) to libinit2.o(.ARM.Collect$$libinit$$00000002) for __rt_lib_init_fp_1
    libinit.o(.ARM.Collect$$libinit$$00000000) refers (Special) to libinit2.o(.ARM.Collect$$libinit$$0000001F) for __rt_lib_init_fp_trap_1
    libinit.o(.ARM.Collect$$libinit$$00000000) refers (Special) to libinit2.o(.ARM.Collect$$libinit$$00000023) for __rt_lib_init_getenv_1
    libinit.o(.ARM.Collect$$libinit$$00000000) refers (Special) to libinit2.o(.ARM.Collect$$libinit$$0000000A) for __rt_lib_init_heap_1
    libinit.o(.ARM.Collect$$libinit$$00000000) refers (Special) to libinit2.o(.ARM.Collect$$libinit$$00000011) for __rt_lib_init_lc_collate_1
    libinit.o(.ARM.Collect$$libinit$$00000000) refers (Special) to libinit2.o(.ARM.Collect$$libinit$$00000013) for __rt_lib_init_lc_ctype_1
    libinit.o(.ARM.Collect$$libinit$$00000000) refers (Special) to libinit2.o(.ARM.Collect$$libinit$$00000015) for __rt_lib_init_lc_monetary_1
    libinit.o(.ARM.Collect$$libinit$$00000000) refers (Special) to libinit2.o(.ARM.Collect$$libinit$$00000017) for __rt_lib_init_lc_numeric_1
    libinit.o(.ARM.Collect$$libinit$$00000000) refers (Special) to libinit2.o(.ARM.Collect$$libinit$$00000019) for __rt_lib_init_lc_time_1
    libinit.o(.ARM.Collect$$libinit$$00000000) refers (Special) to libinit2.o(.ARM.Collect$$libinit$$00000004) for __rt_lib_init_preinit_1
    libinit.o(.ARM.Collect$$libinit$$00000000) refers (Special) to libinit2.o(.ARM.Collect$$libinit$$0000000E) for __rt_lib_init_rand_1
    libinit.o(.ARM.Collect$$libinit$$00000000) refers (Special) to libinit2.o(.ARM.Collect$$libinit$$00000033) for __rt_lib_init_return
    libinit.o(.ARM.Collect$$libinit$$00000000) refers (Special) to libinit2.o(.ARM.Collect$$libinit$$0000001D) for __rt_lib_init_signal_1
    libinit.o(.ARM.Collect$$libinit$$00000000) refers (Special) to libinit2.o(.ARM.Collect$$libinit$$00000025) for __rt_lib_init_stdio_1
    libinit.o(.ARM.Collect$$libinit$$00000000) refers (Special) to libinit2.o(.ARM.Collect$$libinit$$0000000C) for __rt_lib_init_user_alloc_1
    libinit2.o(.ARM.Collect$$libinit$$0000000F) refers (Weak) to rt_locale_intlibspace.o(.text) for __rt_locale
    libinit2.o(.ARM.Collect$$libinit$$00000010) refers to libinit2.o(.ARM.Collect$$libinit$$0000000F) for .ARM.Collect$$libinit$$0000000F
    libinit2.o(.ARM.Collect$$libinit$$00000012) refers to libinit2.o(.ARM.Collect$$libinit$$0000000F) for .ARM.Collect$$libinit$$0000000F
    libinit2.o(.ARM.Collect$$libinit$$00000012) refers (Weak) to lc_ctype_c.o(locale$$code) for _get_lc_ctype
    libinit2.o(.ARM.Collect$$libinit$$00000014) refers to libinit2.o(.ARM.Collect$$libinit$$0000000F) for .ARM.Collect$$libinit$$0000000F
    libinit2.o(.ARM.Collect$$libinit$$00000016) refers to libinit2.o(.ARM.Collect$$libinit$$0000000F) for .ARM.Collect$$libinit$$0000000F
    libinit2.o(.ARM.Collect$$libinit$$00000018) refers to libinit2.o(.ARM.Collect$$libinit$$0000000F) for .ARM.Collect$$libinit$$0000000F
    libinit2.o(.ARM.Collect$$libinit$$00000026) refers to argv_veneer.o(.emb_text) for __ARM_argv_veneer
    libinit2.o(.ARM.Collect$$libinit$$00000027) refers to argv_veneer.o(.emb_text) for __ARM_argv_veneer
    rtexit.o(.ARM.Collect$$rtexit$$00000000) refers (Special) to rtexit2.o(.ARM.Collect$$rtexit$$00000004) for __rt_exit_exit
    rtexit.o(.ARM.Collect$$rtexit$$00000000) refers (Special) to rtexit2.o(.ARM.Collect$$rtexit$$00000003) for __rt_exit_ls
    rtexit.o(.ARM.Collect$$rtexit$$00000000) refers (Special) to rtexit2.o(.ARM.Collect$$rtexit$$00000002) for __rt_exit_prels_1
    rtexit.o(.ARM.exidx) refers (Special) to rtexit2.o(.ARM.Collect$$rtexit$$00000004) for __rt_exit_exit
    rtexit.o(.ARM.exidx) refers (Special) to rtexit2.o(.ARM.Collect$$rtexit$$00000003) for __rt_exit_ls
    rtexit.o(.ARM.exidx) refers (Special) to rtexit2.o(.ARM.Collect$$rtexit$$00000002) for __rt_exit_prels_1
    rtexit.o(.ARM.exidx) refers to rtexit.o(.ARM.Collect$$rtexit$$00000000) for .ARM.Collect$$rtexit$$00000000
    argv_veneer.o(.emb_text) refers to no_argv.o(.text) for __ARM_get_argv
    rtexit2.o(.ARM.Collect$$rtexit$$00000003) refers to libshutdown.o(.ARM.Collect$$libshutdown$$00000000) for __rt_lib_shutdown
    rtexit2.o(.ARM.Collect$$rtexit$$00000004) refers to sys_exit.o(.text) for _sys_exit
    rtexit2.o(.ARM.exidx) refers to rtexit2.o(.ARM.Collect$$rtexit$$00000001) for .ARM.Collect$$rtexit$$00000001
    rtexit2.o(.ARM.exidx) refers to rtexit2.o(.ARM.Collect$$rtexit$$00000003) for .ARM.Collect$$rtexit$$00000003
    rtexit2.o(.ARM.exidx) refers to rtexit2.o(.ARM.Collect$$rtexit$$00000004) for .ARM.Collect$$rtexit$$00000004
    _get_argv_nomalloc.o(.text) refers (Special) to hrguard.o(.text) for __heap_region$guard
    _get_argv_nomalloc.o(.text) refers to defsig_rtmem_outer.o(.text) for __rt_SIGRTMEM
    _get_argv_nomalloc.o(.text) refers to sys_command.o(.text) for _sys_command_string
    sys_command.o(.text) refers (Special) to use_no_semi.o(.text) for __I$use$semihosting
    sys_command.o(.text) refers (Special) to indicate_semi.o(.text) for __semihosting_library_function
    sys_exit.o(.text) refers (Special) to use_no_semi.o(.text) for __I$use$semihosting
    sys_exit.o(.text) refers (Special) to indicate_semi.o(.text) for __semihosting_library_function
    defsig_rtmem_outer.o(.text) refers to defsig_rtmem_inner.o(.text) for __rt_SIGRTMEM_inner
    defsig_rtmem_outer.o(.text) refers to defsig_exit.o(.text) for __sig_exit
    defsig_rtmem_formal.o(.text) refers to rt_raise.o(.text) for __rt_raise
    libshutdown.o(.ARM.Collect$$libshutdown$$00000000) refers (Special) to libshutdown2.o(.ARM.Collect$$libshutdown$$00000006) for __rt_lib_shutdown_fp_trap_1
    libshutdown.o(.ARM.Collect$$libshutdown$$00000000) refers (Special) to libshutdown2.o(.ARM.Collect$$libshutdown$$0000000E) for __rt_lib_shutdown_heap_1
    libshutdown.o(.ARM.Collect$$libshutdown$$00000000) refers (Special) to libshutdown2.o(.ARM.Collect$$libshutdown$$0000000F) for __rt_lib_shutdown_return
    libshutdown.o(.ARM.Collect$$libshutdown$$00000000) refers (Special) to libshutdown2.o(.ARM.Collect$$libshutdown$$00000009) for __rt_lib_shutdown_signal_1
    libshutdown.o(.ARM.Collect$$libshutdown$$00000000) refers (Special) to libshutdown2.o(.ARM.Collect$$libshutdown$$00000003) for __rt_lib_shutdown_stdio_1
    libshutdown.o(.ARM.Collect$$libshutdown$$00000000) refers (Special) to libshutdown2.o(.ARM.Collect$$libshutdown$$0000000B) for __rt_lib_shutdown_user_alloc_1
    rt_raise.o(.text) refers to __raise.o(.text) for __raise
    rt_raise.o(.text) refers to sys_exit.o(.text) for _sys_exit
    defsig_exit.o(.text) refers to sys_exit.o(.text) for _sys_exit
    defsig_rtmem_inner.o(.text) refers to defsig_general.o(.text) for __default_signal_display
    __raise.o(.text) refers to defsig.o(CL$$defsig) for __default_signal_handler
    defsig_general.o(.text) refers to sys_wrch.o(.text) for _ttywrch
    sys_wrch.o(.text) refers (Special) to use_no_semi.o(.text) for __I$use$semihosting
    sys_wrch.o(.text) refers (Special) to indicate_semi.o(.text) for __semihosting_library_function
    defsig.o(CL$$defsig) refers to defsig_rtmem_inner.o(.text) for __rt_SIGRTMEM_inner
    defsig_abrt_inner.o(.text) refers to defsig_general.o(.text) for __default_signal_display
    defsig_fpe_inner.o(.text) refers to defsig_general.o(.text) for __default_signal_display
    defsig_rtred_inner.o(.text) refers to defsig_general.o(.text) for __default_signal_display
    defsig_stak_inner.o(.text) refers to defsig_general.o(.text) for __default_signal_display
    defsig_pvfn_inner.o(.text) refers to defsig_general.o(.text) for __default_signal_display
    defsig_cppl_inner.o(.text) refers to defsig_general.o(.text) for __default_signal_display
    defsig_segv_inner.o(.text) refers to defsig_general.o(.text) for __default_signal_display
    defsig_other.o(.text) refers to defsig_general.o(.text) for __default_signal_display

